:020000040800F2
:100000000000052429110008491000084B100008C1
:100010004D1000084F1000085110000800000000AB
:1000200000000000000000000000000071820008D5
:100030005310000800000000018300089B7B0008AB
:100040007911000879110008791100087911000868
:100050007911000879110008791100087911000858
:100060007911000879110008791100087911000848
:100070007911000879110008791100087911000838
:100080007911000879110008791100087911000828
:100090007911000879110008791100087911000818
:1000A0007911000879110008791100087911000808
:1000B00079110008791100087911000879110008F8
:1000C00079110008791100087911000879110008E8
:1000D00079110008791100087911000879110008D8
:1000E000791100087911000800000000791100085A
:1000F00079110008791100087911000879110008B8
:1001000079110008791100087911000879110008A7
:1001100079110008791100085510000879110008BC
:100120007911000879110008791100087911000887
:100130007911000879110008791100087911000877
:1001400000000000000000000000000000000000AF
:100150007911000879110008791100087911000857
:100160007911000879110008791100087911000847
:100170007911000879110008791100087911000837
:100180007911000879110008791100087911000827
:100190007911000879110008791100087911000817
:1001A00061100008791100086D10000800000000BF
:1001B00079110008791100087911000879110008F7
:1001C000791100087911000800000000000000000B
:1001D000000000000000000079110008000000008D
:1001E000000000000000000000000000000000000F
:1001F00000000000000000007911000879110008DB
:100200007911000879110008000000007911000838
:100210007911000879110008791100087911000896
:1002200079110008000000007911000800000000AA
:100230007911000879110008000000007911000808
:100240007911000879110008791100087911000866
:100250007911000879110008791100087911000856
:100260007911000879110008791100087911000846
:1002700079110008791100087911000800000000C8
:100280007911000879110008791100087911000826
:1002900000000000791100087911000879110008A8
:1002A0007911000879110008791100087911000806
:1002B00079110008791100087911000879110008F6
:0C02C0007911000879110008791100087C
:1002D00010B5054C237833B9044B13B10448AFF380
:1002E00000800123237010BD1001002400000000D5
:1002F000FCB3010808B5034B1BB103490348AFF336
:10030000008008BD0000000014010024FCB30108B7
:1003100001F0FF01102A2BDB10F0070F08D010F8B6
:10032000013B013A8B422DD010F0070F42B3F6D1BA
:10033000F0B441EA012141EA014122F007047FF0D3
:1003400000070023F0E80256083C85EA010586EA2A
:10035000010685FA47F5A3FA87F586FA47F6A5FA66
:1003600087F68EB9EED1F0BC01F0FF0102F0070272
:1003700032B110F8013B013A83EA010313B1F8D11D
:100380000020704701387047002D06BF35460338FE
:10039000073815F0010F07D1013015F4807F02BF37
:1003A000013015F4C03F0130F0BC0138704700BF88
:1003B0000149002009F0B4B83116000808B56420DE
:1003C00007F06BFCFBE7000010B59CB04C2200214D
:1003D00009A81AF0F0F92022002101A81AF0EBF97F
:1003E000042005F08DFF002300931B4B9A6922F433
:1003F00040429A619A6902F440420092009A9A69D6
:100400009104FCD501224FF4803300242C2109A84B
:100410001B94CDE909230223CDE912331493CDE9CE
:1004200017330C23CDE91512CDE9193405F0A6FFD9
:1004300003213F23082201A80394CDE90131402381
:10044000CDE904234FF480620693CDE9072306F03B
:10045000B1FA1CB010BD00BF0048025800B5AFB0E3
:100460000021982208A81AF0A6F94FF00072002384
:100470006846CDE9002305225023CDE9022302235B
:10048000CDE904330693802307932023139306F0CA
:1004900017FD2FB05DF804FB2DE98048A1B01022B4
:1004A00000214FF0105413A801251AF084F91C27DD
:1004B00004F092F8D64B13A8ADF84C500326CDE9C2
:1004C0001443D44B0024169304F0A4F84FF0E043F7
:1004D00013A88DF857401493ADF85A408DF84D503D
:1004E0008DF8547004F096F8022313A88DF8576025
:1004F0008DF84D3016238DF8543040F20113ADF8CD
:100500005A3004F087F84FF0104313A88DF8574085
:100510001493ADF85A4004248DF84D608DF8547052
:1005200004F078F8192313A88DF84D408DF8543055
:100530008DF857608DF85A5004F06CF8204604F09E
:1005400059F8B54B5A6912F4003211D1BFF34F8FED
:10055000BFF36F8FC3F85022BFF34F8FBFF36F8F7E
:100560005A6942F400325A61BFF34F8FBFF36F8F65
:10057000A94A536913F4803323D1C2F88430BFF3FE
:100580004F8FD2F8803043F6E074C3F3C900C3F351
:100590004E335B0103EA0406014646EA81750139E0
:1005A000C2F86052F9D2203B13F1200FF2D1BFF311
:1005B0004F8F536943F480335361BFF34F8FBFF3C1
:1005C0006F8F03F065FF0024FFF7FEFE0126FFF7A3
:1005D00045FF1422002113A81AF0EDF88F4B48F2C2
:1005E00008018F48D3F8E0204FF003084FF00809C6
:1005F0004FF4806742F002028A4D4FF0050A4FF037
:10060000180BC3F8E020D3F8E02002F002020092B9
:10061000009AD3F8E02042F04002C3F8E020D3F87B
:10062000E02002F040020192019AD3F8E02042F06B
:100630000802C3F8E020D3F8E02002F0080202929A
:10064000029AD3F8E02042F01002C3F8E020D3F879
:10065000E02002F010020392039AD3F8E02042F067
:100660000102C3F8E020D3F8E02002F00102049276
:10067000049AD3F8E02042F08002C3F8E020D3F8D7
:10068000E02002F080020592059AD3F8E02042F0C3
:100690000402C3F8E020D3F8E02002F0040206923E
:1006A000069AD3F8E02042F02002C3F8E0200022AE
:1006B000D3F8E03003F020030793079B04F084FA9B
:1006C00000224FF44041584804F07EFA00224FF4D3
:1006D0008061564804F078FA00220121544804F061
:1006E00073FA4FF4004313A94D48CDE91336CDE911
:1006F000154404F0E5F813A949481594CDF858803D
:10070000CDE9139604F0DCF84FF4404313A94648B2
:10071000CDE91336CDE9154804F0D2F813A94348C2
:10072000CDE91376CDE9154404F0CAF813A9404881
:10073000CDE91366CDE9154804F0C2F83D483E4BBB
:10074000848003600662C0E9054403F08FFF4FF424
:1007500040333A483A4AC0E90264C0E9002303F052
:10076000E5FF3422214613A81AF025F8354B28213D
:10077000352040F2152C40F2352EAC862C6185F8E0
:100780003640C5E900340923C5E905130B23C5E943
:10079000070340F21B132846C5E909C340F21D13A5
:1007A000C5E90244C5E90BE304F03EFEFF214FF426
:1007B00088734FF4F07228461A9713940227ADF805
:1007C0007C408DF87E40204DCDE918144FF0E0417B
:1007D000CDE91D23CDE91BA1CDE9142413A922469F
:1007E0004FF0040ACDE9163604F0E9FE21465A46D8
:1007F00013A819F0E0FF154B4FF080722846AC604B
:10080000EC63C5E9003A2023C5E9057420E000BF88
:10081000120000030100010100ED00E00044025855
:1008200000180258C001002400040258000C0258AD
:100830000000025834010024004C025858010024E2
:1008400000100052001000506802002400500052B6
:10085000C5E90323C5E90744C5E90974C5E90B44A3
:10086000C5E90D9405F03AF84FF0011341F28832D2
:1008700013A9169303F57F03284615961793CDE920
:10088000136605F0B3FA284605F09CF840F2011310
:1008900020463E4DADF8383003F054FA0EA92046FC
:1008A00003F042FB204603F015FA5A46214613A8EE
:1008B00019F081FF102221460AA819F07CFF1422AA
:1008C00021460EA819F077FF314B4FF08051284692
:1008D000AC60C5E9003A4FF08063C5E9033B1723DC
:1008E000C5E90B134FF4C873CDE90844EB63C5E9C0
:1008F00005A4C5E90744C5E90974C5E90D4404F038
:10090000EDFF244B41F2883213A9169303F57F03C0
:10091000284615971793CDE9137705F067FA062354
:1009200041F288320AA92846CDF828800D96CDE9F3
:100930000B3405F0A9F84FF4405341F288320EA968
:1009400010934FF0005328460E9412930F94119673
:1009500005F0C0F808A92846089405F0D3F900F07E
:100960000DFC00F00AFC07F025F90B4A21460B4864
:1009700007F04CF90A4B0B4A214618600A4807F069
:1009800045F90A4B186007F027F9FEE7C402002476
:1009900000A000520200010094B40108BD03000849
:1009A0003001002470B401088B1100082C010024D0
:1009B0000268034B9A4201D103F098BD704700BF13
:1009C00000100040704700000A4B82B00F216FF00A
:1009D0000100D3F8F42042F00202C3F8F420002210
:1009E000D3F8F43003F002030193019B02B003F04B
:1009F000B3BD00BF00440258026882B0094B9A425E
:100A00000DD1A3F50063D3F8E02042F40022C3F82F
:100A1000E020D3F8E03003F400230193019B02B0FF
:100A2000704700BF004C02580F4B07B502689A424E
:100A300017D10E4B05215A20D3F8D42042F01002D2
:100A4000C3F8D4200022D3F8D43003F0100301936C
:100A5000019B03F081FD5A2003B05DF804EB03F025
:100A6000ADBD03B05DF804FB001000520044025815
:100A70002DE9F041BCB004461422002109A819F068
:100A80009AFEB82200210EA819F095FE2268774B35
:100A90009A4240F0E7804FF0005200230EA8CDE9C3
:100AA0000E234FF490731922CDE918230223CDE9C8
:100AB0001A331E231C934FF400731E9306F000FAA2
:100AC00008B1FFF77FFF6A4B002402260325D3F805
:100AD000E4200E2709A9674842F008024FF05808A1
:100AE000C3F8E420D3F8E42002F008020192019A4E
:100AF000D3F8E02042F00202C3F8E020D3F8E0206F
:100B000002F002020292029AD3F8E02042F00802B8
:100B1000C3F8E020D3F8E02002F008020392039A21
:100B2000D3F8E02042F01002C3F8E020D3F8E02030
:100B300002F010020492049AD3F8E02042F001027D
:100B4000C3F8E020D3F8E02002F001020592059AF4
:100B5000D3F8E02042F04002C3F8E020D3F8E020D0
:100B600002F040020692069AD3F8E02042F080029A
:100B7000C3F8E020D3F8E02002F080020792079A41
:100B8000D3F8E02042F00402C3F8E020D3F8E030CC
:100B90000D9703F004030893089B40F20333CDE95B
:100BA0000B45CDE9093603F08BFE492309A93248EC
:100BB0000D97CDE90936CDE90B4503F081FE4BF6E3
:100BC000030309A92D480D97CDE90936CDE90B4559
:100BD00003F076FE4FF4807309A92948CDE9093660
:100BE0000D23CDE90B450D9303F06AFE4FF48143CD
:100BF00009A924480D97CDE90936CDE90B4503F045
:100C00005FFE48F6087309A91F480D97CDE909361C
:100C1000CDE90B4503F054FEC02309A91B480D97ED
:100C2000CDE90936CDE90B4503F04AFE09A9144880
:100C30000D97CDE90986CDE90B4503F041FE102360
:100C400009A91148CDE909360923CDE90B450D93D2
:100C500003F036FE40462246052103F07DFC404667
:100C600003F0ACFC3CB0BDE8F08100BF00100050C8
:100C70000044025800040258000C025800100258A8
:100C80000000025800180258001C025800080258C0
:100C90002DE9F04391B00446142200210BA819F06D
:100CA0008AFD2368884A934240F0B080874A1368DF
:100CB0000133012B13600CD1854BD3F8D42042F4BF
:100CC0000012C3F8D420D3F8D43003F400130093F7
:100CD000009B7F4B022503240927D3F8D4200BA9BE
:100CE0007C48002642F480424FF00A084FF0040985
:100CF000C3F8D420D3F8D42002F480420192019AA0
:100D0000D3F8E02042F04002C3F8E020D3F8E0201E
:100D100002F040020292029AD3F8E02042F0080268
:100D2000C3F8E020D3F8E02002F008020392039A0F
:100D3000D3F8E02042F01002C3F8E020D3F8E0201E
:100D400002F010020492049AD3F8E02042F020024C
:100D5000C3F8E020D3F8E02002F020020592059AC3
:100D6000D3F8E02042F00202C3F8E020D3F8E030EC
:100D700003F002030693069B4FF40073CDE90B3595
:100D8000CDE90E4703F09CFDB0230BA95248CDF8E6
:100D90003C80CDE90B35CDE90D6403F091FD0BA945
:100DA0004E480F97CDE90B95CDE90D6403F088FD12
:100DB00040230BA94748CDF83C80CDE90B35CDE960
:100DC0000D6403F07DFD4FF460530BA942480F976B
:100DD000CDE90B35CDE90D6403F072FD4FF480636E
:100DE0000BA93F480F97CDE90B35CDE90D6403F012
:100DF00067FD0BA93B48CDF83C80CDE90B95CDE9CB
:100E00000D6403F05DFD11B0BDE8F083364A9342F6
:100E1000F9D12E4A13680133012B13600CD12C4BEE
:100E2000D3F8D42042F40012C3F8D420D3F8D4303D
:100E300003F400130793079B254B0324022509267F
:100E4000D3F8D4200BA92348002742F40022C3F88A
:100E5000D420D3F8D42002F400220892089AD3F8C0
:100E6000E02042F04002C3F8E020D3F8E02002F096
:100E700040020992099AD3F8E02042F02002C3F818
:100E8000E020D3F8E03003F020030A930A9B40F6F9
:100E90000303CDE90E46CDE90B3503F011FD4FF408
:100EA000A0530BA90B480F94CDE90B35CDE90D7478
:100EB00003F006FD41F21F030BA909480F96CDE987
:100EC0000B35CDE90D749CE700500052200300243F
:100ED0000044025800180258000C02580010025832
:100EE000001402580004025800A00052274A08B516
:100EF000036893422AD1264B1A68013A1A60254B9F
:100F00002AB9D3F8D42022F40012C3F8D420D3F89D
:100F1000D4204FF41071204822F48042C3F8D4202A
:100F200003F0B2FD43F6B0011C4803F0ADFD04210F
:100F30001B4803F0A9FD4FF480611A4803F0A4FD9B
:100F400004211948BDE8084003F09EBD174A9342AA
:100F50001AD10F4B1A68013A1A600E4B2AB9D3F80E
:100F6000D42022F40012C3F8D420D3F8D42041F6C0
:100F70000341094822F40022C3F8D42003F084FD81
:100F800041F21F010748DDE708BD00BF00500052D5
:100F9000200300240044025800180258000C025894
:100FA00000100258001402580004025800A0005219
:100FB0000F2810B504468AB002D901200AB010BD2E
:100FC00001460022362003F0C7FA362003F0F6FA75
:100FD000184B694602A81C60174BD3F8E82042F072
:100FE0001002C3F8E820D3F8E83003F010030193AF
:100FF000019B05F04BFE079BC3B905F023FE0F4C88
:101000000F4B236040F2E733E3600E4BB0FBF3F08D
:1010100001380023606020462361A36006F08AFD4A
:101020000028CAD1204606F01DFCC7E705F00AFEDD
:101030004000E4E748000024004402582403002450
:101040000010004040420F007047FEE7FEE7FEE759
:10105000FEE77047014806F04FBC00BF24030024A0
:10106000014804F04FBA00BFC0010024014803F05A
:101070009CBB00BF580100240120704708B519F03F
:101080003DFC162303604FF0FF3008BD08B519F092
:1010900035FC16230360FEE770B50D4614460E4678
:1010A000731B9C4201DC204670BDAFF3008006F844
:1010B000010BF5E770B50D4614460E46731B9C42B6
:1010C00001DC204670BD16F8010BAFF30080F5E798
:1010D0004FF0FF3070474FF4005300204B607047D3
:1010E00001207047002070470B4A0346116810B575
:1010F00009B90A491160106809490A4C0344091BDF
:101100008B4206D919F0FAFB0C2303604FF0FF3035
:1011100010BD1360FCE700BF70030024E8770024D3
:101120000000052400100000DFF834D003F05AF965
:10113000002103E00B4B5B58435004310A480B4B32
:1011400042189A42F6D30A4A02E0002342F8043BCE
:10115000084B9A42F9D319F0D7FBFFF79DF9704776
:1011600000000524A0D00108000000241001002484
:1011700010010024E8770024FEE7704708B500F06E
:1011800053FDBDE8084000F0DFBC00F04FBD4068F3
:1011900070474160704700004FF0E022D2F8FC3DFC
:1011A00043F08073C2F8FC3D054B064AD3F8B01FEC
:1011B0000A43C3F8B02F1A6842F001021A60704760
:1011C000001000E055CEACC5511A01EB5301B1FB44
:1011D000F3F07047014B5868704700BF001000E003
:1011E000704710B504460C2119F0C4F8204610BD14
:1011F000036810B51B69044631B19847A26863685B
:101200009B1A1844606010BD9847A060FBE77047C8
:101210001FB5082300206946CDE90230054B1B8825
:101220000093054B1B88019302F0F8FF05B05DF8B1
:1012300004FB00BFD26B0024D46B002410B504461D
:10124000042119F097F8204610BD30B585B0002074
:101250000D46144601A90390CDE9010003F060F8A2
:1012600040B14FF0500383F31188BFF36F8FBFF38A
:101270004F8FFEE7019820B1029B01202B60039B5A
:10128000236005B030BD0000032825D8DFE800F05A
:10129000020B131C114B012111481A68B2FA82F299
:1012A000520903F091BC0D4B08210E485A68B2FA5E
:1012B00082F25209F5E7094B4FF480419A68B2FA7D
:1012C00082F252090848ECE7044B4FF40041DA6817
:1012D000B2FA82F25209F5E7704700BF74030024A6
:1012E000000002580018025800040258032825D8AC
:1012F000DFE800F0020B131C114B012111481A68A2
:10130000003A18BF012203F05FBC0D4B08210E48C4
:101310005A68003A18BF0122F5E7094B4FF48041A3
:101320009A68003A18BF01220848ECE7044B4FF4D2
:101330000041DA68003A18BF0122F5E7704700BFA4
:1013400074030024000002580018025800040258D8
:10135000032811D8DFE800F00206090D0121074833
:1013600003F037BC08210648FAE74FF480410548EE
:10137000F6E74FF40041FAE7704700BF000002585B
:10138000001802580004025808B5032815D8DFE8F1
:1013900000F0020A0D110121094803F00FFC431E61
:1013A0005842584108BD08210648F6E74FF48041ED
:1013B0000548F2E74FF40041FAE70020EFE700BFED
:1013C00000000258001802580004025870B5084D79
:1013D00000240126E0B2FFF7D7FF18B12B68012BDC
:1013E00018BF2E6001340435052CF3D170BD00BF49
:1013F00074030024012380F8781080F87930704756
:101400000020704741640039024B18BF0121197058
:10141000704700BFD76B002400207047836B0BB16F
:101420000846184770474FF6FF70704740680368DA
:101430009B6918477047000038B5044600F0CCFCA3
:101440000A4A4FF0E04123682046D3F88850084B01
:10145000A84704F17C05FFF7B9FF2846FFF79CFE7B
:101460000123256184F8703038BD00BF000006708C
:1014700000000C7008B503680446D3F88030984724
:10148000236820469B6F984700F02AF9236820467E
:101490001B6F984701224FF48061084803F094FBCA
:1014A00001224FF40041064803F08EFB00F018F9CA
:1014B000236820461B6F9847F8E700BF000C0258CE
:1014C0000018025810B504460AF040FB2368204675
:1014D000D3F8AC30BDE81040184700F06FBC00F006
:1014E00073BC000070B500F095FC10490023C1F8F2
:1014F0008430BFF34F8FD1F8803043F6E074C3F3EC
:10150000C900C3F34E335B0103EA0406024646EA10
:101510008275013AC1F87452F9D2203B13F1200FC1
:10152000F2D1BFF34F8FBFF36F8F70BD00ED00E0BE
:1015300000F020BC00F0B6BC00F0A0BC00F024BC61
:1015400009F070BD10B50446882118F013FF20463D
:1015500010BD90F87A301BB1406803681B681847CB
:101560001846704790F834100D4B10B590F878403D
:101570001A788C4209D03AB90A490B4A088814886B
:10158000108001220C801A7010BD002AFCD0064A7F
:101590000449148808880C8010800022F3E700BFFB
:1015A000D06B0024CE6B0024CC6B002470B50D46AC
:1015B000194635B9094B40F2D221094A094818F0B9
:1015C00007FFC0E90F52003A074B18BF01221A70FB
:1015D0000368BDE87040D3F88C301847F8B40108B0
:1015E00030B501087EB50108D66B002408B5094B5B
:1015F0001B888B4203D8084B1B88934205D9074BA5
:101600009E21074A074818F0E3FE074B1980074B55
:101610001A8008BDCC6B0024CE6B0024C3B5010832
:1016200026B601087EB50108D26B0024D46B0024D5
:10163000014608B5034B186801B101210AF0A0FA70
:10164000012008BDD86B00240121002208B50846FE
:1016500006F02FFB0A4B186028B90A4B28210A4ACA
:101660000A4818F0B5FE00220421012006F0BEFB56
:10167000074B186018B9074B2C21034AF0E708BD47
:101680008803002444B701088DB70108BCB70108DE
:101690008403002401B80108024B4FF0FF311868A1
:1016A00006F051BB88030024014B186806F076BB96
:1016B00088030024024B0021186806F044BB00BFD9
:1016C00088030024FFF7F0BF0023034803491A46AC
:1016D000006806F0C6BB00BF840300240400002499
:1016E00013B50023074C01A91A46206806F0E9FB50
:1016F0004FF0FF33002201A9206806F0E2FB02B0A0
:1017000010BD00BF8403002403685B6C18470120F0
:10171000704703689B6A184740F2EF30704700003B
:10172000054B4FF080620360044BC3F88820BFF381
:101730004F8FBFF36F8F704798B9010800E100E049
:1017400010B504464FF45A61FFF7EAFF204618F03F
:1017500011FE204610BD00000F4B82B0D3F8D420FC
:1017600042F01002C3F8D420D3F8D42002F01002C3
:101770000192019ADA6F42F01002DA67DA6F22F012
:101780001002DA67054B064A1A62064B4FF0806278
:101790009A6002B0704700BF00440258580100240C
:1017A000A917000800E100E0024B1B6858680368B5
:1017B0005B691847D86B002470B504460A4B0C309F
:1017C00000262546602260602672667245F8203B3E
:1017D00029460AF011FB04F55A63EE602435AB424A
:1017E000FBD1204670BD00BF98B9010808B50B2990
:1017F0000BD8DFE801F01206100A0A0A0A080808E6
:101800000808012008BD0520FCE7054B6521054AB5
:10181000054818F0DDFD0020F4E70220F2E700BFE4
:1018200043B801085EB80108A8B8010808B50A293C
:1018300009D8DFE801F010060E08080808060606B9
:101840000600012008BD054B8621054A054818F011
:10185000BFFD0020F6E70220F4E700BF43B801080F
:10186000EBB80108A8B801082DE9F8434F7F0C46F2
:1018700081463946FFF7BAFF94F81E800546484670
:101880004146FFF7B3FF414606464846FFF7CEFF05
:10189000A18A628B424B521A1A649A61228B521AA5
:1018A0001A61E28A586342EA014221695A64626815
:1018B000D963DA602068227F802821D00FD82028C1
:1018C00064D0402862D004285AD045EA0265344BDF
:1018D000474545F40035DD615ED0324A3DE0B0F564
:1018E000807F04D0B0F5007FEFD12F4800E02F4873
:1018F00040EA0262DA61E2681A625E6259612BE0D4
:1019000045EA0265A06845F40035DD615E62596113
:10191000011DD962017841B1012921D0244B4FF436
:101920008071244A244818F053FDDA69418822F472
:101930007F42013922F0100242EA0122DA610122DB
:10194000174BD96941F02001D961D9698906FCD4C6
:1019500010219960002AC0D0184A1A60BDE8F883A7
:10196000D969FF3A408821F47F4118BF012201382C
:1019700021F0100141EA002141F01001D961DFE7B7
:1019800045EA026242F40032DA61B6E745EA0262F1
:10199000034B42F40032F7E740F20122DDE700BFDB
:1019A0000010005201020100090002000A000200BA
:1019B00036B9010850B90108A8B8010801020200AF
:1019C00038B50C46897FFFF731FF124BA58AE28AB2
:1019D000586342EA054221695A64628BD963521BFB
:1019E0001A642568082D0ED19A611A6158620A4A54
:1019F000207F42EA0062DA61E2681A62074A5961AE
:101A0000D9601A6038BD0022D8611A61E2689A6311
:101A1000034AF6E70010005209000100010202002B
:101A200001020300012070474020704700EB811045
:101A30000830704700EB8110083070470120704774
:101A40004FF42B7070474FF42B7303FB01000830E9
:101A500070474FF42B7303FB0100083070470120DF
:101A600070471020704700EB01100830704700EB02
:101A7000011008307047084600F034BD034B10B524
:101A80000446036008F0C3F9204610BD50BA0108AF
:101A900010B50446FFF7F2FF4821204618F06AFC13
:101AA000204610BD034B10B50446036008F0AFF9A3
:101AB000204610BD1CBA010810B50446FFF7F2FF1E
:101AC0004FF42D71204618F055FC204610BD000043
:101AD000034B10B50446036008F099F9204610BD89
:101AE000E8B9010810B50446FFF7F2FF18212046B7
:101AF00018F040FC204610BD084B10B504460360AA
:101B000000F53870FFF7BAFF04F12C00FFF7CAFFA9
:101B100004F11400FFF7DCFF204610BD84BA010871
:101B200008B50248FFF7E8FF08BD00BF9003002496
:101B300010B50446FFF7E0FF4FF49161204618F01E
:101B400019FC204610BD00002DE9F34100F002FA17
:101B50000024054600F002FA2346014622462846A4
:101B600000940FF075F9254B254A2046254D1A6043
:101B700001F0A4F824480FF023F82B68BFF35B8F23
:101B8000DB0735D4284618F0F7FB88B31F4C204BF1
:101B900004F54B7604F1140004F12C0804F53877B1
:101BA00023606060C4F80880E760266108F030F9BF
:101BB000184B4046636108F02BF9174B3846E36237
:101BC00008F026F9154B04F54A70C4F8E03201F02C
:101BD000A7F9224604F54A71304601F0E1F8304693
:101BE00000F080FC0E4818F011FC284618F0D0FBDD
:101BF0000C4802B0BDE8F041FFF71EBC346C002475
:101C0000441600248C0300240800002490030024C0
:101C100084BA0108E8B901081CBA010850BA0108E1
:101C2000211B0008BC150024704700000148FFF785
:101C300021BC00BFBC15002470B5254E254B264C99
:101C40003046264D2360FFF7B7FD284612F0AEF967
:101C5000234B00224FF4807122481A8683F85820C3
:101C60005A6683F87020DC60C3E912121E49C3E98A
:101C70001A121E490B604FF4F07101801C4801805C
:101C80004FF488711B4801801B4801801B49C3E940
:101C90000422C3E90622C3E90822C3E90A22C3E9F0
:101CA0000E22C3E91022C3E91422C3E91722C3E9B3
:101CB00001650A701249C3F8802083F83420196046
:101CC0005A671049C3F884200F4A9967DA6770BDD4
:101CD0001C080024E8B40108180800244816002451
:101CE000BC150024CC6B002401000001D86B00243B
:101CF000D26B0024CE6B0024D46B0024D06B002464
:101D000074B6010800000101C0B401080148FFF7E2
:101D100007BD00BF1C080024002070478180704769
:101D2000C18070470181704741817047704770479B
:101D300070477047704710B4C4880368121B8488CA
:101D40005B6D091B12B25DF8044B09B218474FF6E0
:101D5000FF7383814FF0FF3303621368C361106028
:101D6000704790F825201AB190F8242002B118602D
:101D700070470000034B902283F85A2383F85823BE
:101D8000704700BF00E100E0094A0A49D3680A48E9
:101D9000C3F30A03013B9BB20B801169C1F30A0133
:101DA000013901801364536B43F00103536370479F
:101DB00000100050AE160024AC160024014BD3F8DE
:101DC000AC00704700100050024B0122C3F8AC1069
:101DD0005A6270470010005070B5044609F077F958
:101DE00023685D6E0CF04AFA01462046A847236836
:101DF0002046054AD3F888504FF0E0410023AC4616
:101E0000BDE87040604700BF0000067009F046B9A9
:101E100009F050B909F00CB909F06DBA90F8252015
:101E200012B103685B69184770470000124A536992
:101E3000DB0370B51ED50023C2F88430BFF34F8F8B
:101E4000D2F8803043F6E074C3F3C900C3F34E33D5
:101E50005B0103EA0406014646EA81750139C2F8CE
:101E60007452F9D2203B13F1200FF2D1BFF34F8F00
:101E7000BFF36F8F70BD00BF00ED00E0084B4FF067
:101E80008062C3F88820BFF34F8FBFF36F8F4FF08E
:101E90008072C3F88820BFF34F8FBFF36F8F7047F6
:101EA00000E100E0034B4FF080629A604FF08072D7
:101EB0009A60704700E100E010B5144C236823B32A
:101EC000134B144A1B6C11888B4213D1124B198887
:101ED00003F0A2FB226892F86A30013382F86A307C
:101EE000FFF7F2FB206809F031FE0020BDE810404A
:101EF000FFF7CAB903F090FB206803681B6A984794
:101F00000020BDE81040FFF7F1B910BDD86B0024E8
:101F100000100050AE160024AC160024704710B517
:101F20000446042118F026FA204610BD012908B500
:101F300006D0022908D059B900F00CFF006808BD8E
:101F400000F008FF4068FAE700F004FF8068F6E759
:101F50000020F4E700487047A4BA01080220704747
:101F600013B5002451B1036801AA01948DF8034010
:101F70009C680DF10303A04702B010BD0846FBE7C3
:101F8000C0897047008A7047C08870478088704752
:101F9000807A00F07F007047807AC00970477047F0
:101FA00010B50446082118F0E5F9204610BD704729
:101FB000704700F598730868496803C37047704715
:101FC0007047416070477047064BC0F84801C0F841
:101FD0004C310023C0F8503100F5A273C0F84031F5
:101FE000704700BF692100080123037270477047E2
:101FF0007047704710B441680346C2689B6854102C
:1020000001EB6200D20748BF0A595DF8044B48BF94
:10201000D358184743682BB183682BB9C06800F0C8
:1020200001007047184670470120704710B50446FC
:102030000C2118F09FF9204610BD10B50446102160
:1020400018F098F9204610BD10B504464FF4AE7153
:1020500018F090F9204610BD10B50446402118F044
:1020600089F9204610BD10B50CF008F90368BDE8E9
:102070001040DB6B18470000054B01461B782BB165
:10208000406818B103680C315B6E1847704700BF99
:10209000D76B0024037A70B50546BBB94068036866
:1020A000DB69984704463CB9686805F10C01036890
:1020B000BDE870401B6E1847E18820466B8FC91A37
:1020C000236809B25B6B9847A469ECE770BD70B5F3
:1020D000044690F83900013094F83830C0B2984284
:1020E00084F8390005D901232372002384F839309C
:1020F00070BDB4F93A2000210DF0C8FD10F00102C6
:1021000083B206D04FF6FF710028D8BF0A461344A9
:1021100018B2638AC01AA08760680368DB699847B1
:1021200005462DB960680368BDE870405B691847D3
:10213000E9882846A38F19442B6809B25B6B98473E
:10214000AD69EEE710B50446D0F8400158B1036818
:10215000DB68984738B1D4F8400103689B6898471A
:102160000023C4F8403110BD2DE9F14FD0E9555A94
:102170000746A86803681B6A9847B0F52B7F05D20D
:10218000454BA321454A464818F022F96868036880
:102190001B6A98470F2803D8424BA4213F4AF2E715
:1021A000E86803681B6A98470B2803D83E4BA521B3
:1021B0003A4AE8E7DFF8F8900CF060F804300CF0E9
:1021C0009BF8D9F8000010B10368DB689847D9F88C
:1021D000000010B103681B689847DFF8D880D8F872
:1021E000000010B103685B699847D7F83C0110B153
:1021F00003685B689847D8F8000010B103681B6853
:102200009847D7F83C0110B103689B689847E86885
:1022100000214FF0000B03685B6A9847234B04468C
:10222000C0F804B00360594680F808B0A868036895
:102230005B6A9847064600F0F1FD686859460368F6
:102240005B6A98470546314600F0C2FDC9F8004078
:10225000C7F83C51C8F80060E5B12B1DCAF8003042
:1022600030463368C5F808A0DB68F56398472B68EB
:1022700028461B689847214630460DF001FD23682B
:1022800020461B699847236820465B6901B0BDE87A
:10229000F04F18472B46E1E7DCBA01086ABB01089A
:1022A00074BC0108BBBC01085EBD010894BF0108F5
:1022B000186C0024146C00242DE9F74FD0E9555A0E
:1022C0000746A86803681B6A9847BF2805D85C4B77
:1022D000A3215C4A5C4818F07BF8686803681B6AB5
:1022E00098470F2803D8594BA421564AF2E7E868CB
:1022F00003681B6A98473F2803D8554BA521514ACC
:10230000E8E7DFF860910BF0B9FF04300BF0F4FF61
:10231000D9F8000010B10368DB689847D9F80000CD
:1023200010B103681B689847DFF83C81D8F80000BB
:1023300010B103685B699847D7F83C0110B1036896
:102340005B689847D8F8000010B103681B6898478D
:10235000D7F83C0110B103689B689847E8680021F2
:102360004FF0000B03685B6A98473A4B06460446F9
:10237000C0F804B080F808B046F80C3B304609F0CD
:10238000D7FD1423A4F83CB02387334B1B78002BD4
:1023900037D101232372A868002103685B6A98473C
:1023A000064600F079FD6868002103685B6A98477B
:1023B0000546314600F04CFDC9F80040C7F83C51D5
:1023C000C8F80060002D38D02B1DCAF80030304608
:1023D0003368C5F808A0DB68F56398472B68284682
:1023E0001B689847214630460DF04AFC236820467A
:1023F0001B699847236820465B6903B0BDE8F04F2E
:102400001847164B3046E168B3F90020C4F810B005
:10241000D1F838B012490192B1F90010D847E168FB
:10242000019A3046D1F83CB01146D847304609F001
:10243000FAFC0A4B1B886387ADE72B46C5E700BF54
:10244000DCBA010801BE010874BC0108BBBC01086C
:102450005EBD0108B8BF0108D76B0024CE6B002415
:10246000CC6B0024186C0024146C0024044B1B68F3
:1024700093F858200AB1D86C00B99868704700BF2B
:10248000D86B0024F8B5044617460E460CF006F843
:10249000104B00251C6029460F4B23600F4BC4E9ED
:1024A00051350F4B1868C4E953550368C4E94F55BB
:1024B0009B68C4E955769847284600F0FFFBFFF774
:1024C000D5FF12F058FEFFF7D1FF12F0CBFE2046E9
:1024D000F8BD00BF246C002440BF010828BF0108DC
:1024E000D86B0024064BC0F84801C0F84C310023DB
:1024F000C0F8503100F5A273C0F84031704700BFFA
:1025000069210008064BC0F84801C0F84C3100238F
:10251000C0F8503100F5A273C0F84031704700BFD9
:10252000B9220008406A7047806A704770478B88FC
:10253000C069DB0A0A6850F823001044704710B5E0
:10254000C2B1137BB3B1547BD27A240204F4E064A9
:102550001443026A98B202EB840213888B4202D1C0
:1025600092F9020010BD05D80138043280B200286B
:10257000F3D1F7E70020F5E710B504462C2117F05A
:10258000F9FE204610BD000030B58BB00446BDF802
:1025900060500895BDF85C5007959DF85050069521
:1025A0009DF84C5005959DF8485004959DF8445071
:1025B00003959DF8405002959DF83C500195BDF85B
:1025C000385000950CF0CAFF064B20462360159B3F
:1025D000E361169B2362199B63621A9BA3620BB093
:1025E00030BD00BFDCBF01087047704770477047BF
:1025F000704770477047704730B444680346C268FC
:102600009B68551004EB6200D20748BF625930BC8A
:1026100048BFD358184743682BB183682BB9C068AB
:1026200000F001007047184670470120704710B550
:102630000446102117F09EFE204610BD10B504463A
:102640004FF42B7117F096FE204610BD00F59470E4
:10265000884208B505D10BF011FEBDE80840FFF730
:1026600051BF08BD036870B504461B6B15469847FB
:102670002368204629465B6BBDE87040184770B55B
:1026800004461D46BDF91060FFF7ECFF236829469C
:1026900020469B6B9847236831462046DB6BBDE89C
:1026A000704018470022C0E90122C0E90322C0E9B6
:1026B0000522C0E907224FF480728284014A026039
:1026C000704700BF3CC0010810B504462622002117
:1026D00018F071F82046FFF7E5FF00232046A362BB
:1026E00084F82C30012384F82430044B23604FF607
:1026F000FF73E385238684F8323010BDC4C7010818
:1027000010B504462622002118F055F82046FFF7A0
:10271000C9FF0A4B4FF47F0220462360084BA36297
:102720004FF6FF73A3850023C4E90C324FF0FF324C
:102730002387E363C4E9102310BD00BFCCC60108A2
:10274000D4BA01082DE9F04F044600252DED048B85
:102750008BB027460DF0E8F88D4B29462622E5631D
:1027600004F16C0647F8403B384618F024F8384628
:10277000FFF798FF874B04F5947A304623644FF0B7
:10278000FF33A56604F5E27984F8663004F5037832
:1027900008F01AF95046FFF797FF04F5AE7304F5F9
:1027A000157B184608EE103AFFF78EFF04F5C87344
:1027B000184608EE903AFFF787FF4846FFF7A0FF5C
:1027C0004046FFF79DFF5846FFF79AFF724B2A4697
:1027D00029463846C4E9A734704BC4E9A9354FF4FB
:1027E000887300934FF4F073FFF749FF4FF07F4376
:1027F00039464FF00107A366231D184609EE103A2B
:1028000007F01AFB4FF488732A4630460093E621FE
:10281000FA23FFF734FF30464FF07F4108F0EBFB1F
:102820003046FF2108F0ECFB50460A220521FFF755
:1028300019FF08AA07A95046ADF82070ADF81C5042
:1028400009F0C8FF04F5277351463046DFF850A160
:10285000C4F8503107F0C7FD18EE100A45220521D3
:10286000FFF700FF08AA07A918EE100AADF82070BC
:10287000ADF81C5009F0AEFF18EE101A304607F004
:10288000B2FD18EE900A7E220521FFF7EBFE08AAA2
:1028900007A918EE900AADF8207002AFADF81C50F1
:1028A00009F098FF18EE901A304607F09CFD1922A7
:1028B00048464F21FFF7D6FE4FF07F434946384642
:1028C000C4F8F431A4F8F85109F08CFC04F5007355
:1028D00097E8070083E8070008A94846CDF820A03C
:1028E000ADF8245009F018FF4946304607F07BFD4B
:1028F000542240465121FFF7B5FE4FF07F43414639
:102900003846C4F83C32A4F8405209F06BFC04F598
:10291000127397E8070083E807004FF0010308A946
:102920004046CDF820A0ADF8243009F0F5FE414630
:10293000304607F058FD8D2258465121FFF792FE90
:102940004FF07F4359463846C4F88432A4F8885281
:1029500009F048FC04F5247397E8070083E80700B2
:10296000022308A95846CDF820A0ADF8243009F07C
:10297000D3FE5946304607F036FD19EE100A3146AF
:1029800007F05AFA20460BB0BDEC048BBDE8F08F7F
:10299000BCC001085CC70108A4C001084D2600089E
:1029A000D4BA01087047704710B50446982117F053
:1029B000E1FC204610BD00002DE9F7430446002548
:1029C0000CF0B2FF254B2646E5634FF48879FF22D1
:1029D00046F8403B2946224B304684F866202A467A
:1029E0002566271DA56604F16C08C4F89450CDF83F
:1029F0000090C4E910354FF48073A4F86430A4F853
:102A00009030184BC4E91255E3664FF4F073C4E9F3
:102A10001455C4E91655C4E91C55C4E91E55C4E94A
:102A20002055C4E92255FFF72AFE4FF07F43314677
:102A30003846A36607F000FA4FF4F0732A46294699
:102A40004046CDF80090FFF71AFE3846414607F0A1
:102A5000F3F9204603B0BDE8F08300BFF0C00108E1
:102A60005CC70108D8C401087047000030B5164D96
:102A70008FB02C68BFF35B8F14F0010420D128467F
:102A800017F07AFCE0B13F23012210490993104B63
:102A900010480893104B0A940594CDE9064304238B
:102AA000CDE903320A23CDE90B440093CDE901447B
:102AB000FFF76AFD094817F0A9FC284617F068FCE3
:102AC00004480FB030BD00BFB016002470CF01081D
:102AD0001CD00108B416002428D00108692A000877
:102AE0007047000030B5164D8FB02C68BFF35B8F78
:102AF00014F0010421D1284617F03EFCE8B13F2331
:102B0000012210490993104B10480893104B0A9466
:102B10000594CDE906430423CDE9033214230A22A8
:102B20000093CDE90B44CDE90144FFF72DFD0948A1
:102B300017F06CFC284617F02BFC04480FB030BD92
:102B4000E016002480CF010820D00108E4160024FC
:102B50002CD00108E12A00087047000030B5164D5E
:102B60008FB02C68BFF35B8F14F0010420D128468E
:102B700017F002FCE0B13F23012210490993104BEA
:102B800010480893104B0A940594CDE9064304239A
:102B9000CDE903322823CDE90B440093CDE901446C
:102BA000FFF7F2FC094817F031FC284617F0F0FB5C
:102BB00004480FB030BD00BF101700240CD001082E
:102BC00024D001081417002430D00108592B000824
:102BD00000207047002070470EB403B503AB0021FE
:102BE00053F8042B01930CF0E1FA02B05DF804EB0A
:102BF00003B070470CB407B504AB53F8042B019332
:102C00000CF0D4FA03B05DF804EB02B0704700009A
:102C1000436C10B5044673B3038F2BB9184BC52111
:102C2000184A194817F0D4FBC38E00EB43035B8CA2
:102C30000BB30DF089FD238F012B03D8134BCB2150
:102C4000134AEEE7E28E40F63F10531C9BB2092B6D
:102C5000194688BFA3F10A0104EB4101498C814266
:102C600009D10A2B04EB420228BF0023508C04EB4D
:102C70004303588451842046BDE810400DF066BCE3
:102C80001CC1010825C10108D0C101081AC20108F0
:102C900028C201080DF023BC10B586B002AC84E850
:102CA00006001A460AAB214605930193099B00933F
:102CB000089B0AF0C7FE06B010BD000038B518BB6F
:102CC000124B13481C681349B4B1226822440260B5
:102CD000626822440A60A26814440F4B00221A80E2
:102CE00000F038F8054600F033F80C4B1C600C4B34
:102CF0001D600C4B188007E00B4B03600B4B0B6007
:102D00000B4B1C68002CE8D138BD00BF40170024D5
:102D100044170024481700244C170024286C002472
:102D2000306C00242C6C002440D0010834D0010801
:102D300080D00108044B1B6853F82100034B1B682B
:102D400003EB4000704700BF4817002444170024DD
:102D500003207047004870475017002410B5054CF9
:102D6000FFF7C0FE2060FFF7F9FE6060FFF77EFE10
:102D7000A06010BD50170024704710B504464FF4F2
:102D8000AE7117F0F7FA204610BD10B50446D0F822
:102D9000580100F0C8F82046BDE810400BF00ABB0F
:102DA00010B50446FFF76EFB014B2046236010BDB3
:102DB00004C30108704704387047704710B50446D3
:102DC000102117F0D7FA204610BDA0F10400F5E756
:102DD0000022C1608260044A10B502F1080420326A
:102DE0000460426010BD00BF50C30108704700007E
:102DF000034B10B504460360FFF7FBFB204610BDF4
:102E000080C3010810B50446FFF7F2FF4FF42B71A1
:102E1000204617F0AFFA204610BD000010B504465A
:102E2000FFF790FC014B2046236010BD80C30108D2
:102E3000FFF7E0BB704704387047704710B5044691
:102E4000102117F097FA204610BDA0F10400F5E715
:102E50000022C1608260044A10B502F108042032E9
:102E60000460426010BD00BFACC3010870470000A1
:102E7000034B10B504460360FFF794FD204610BDD8
:102E8000DCC3010810B50446FFF7F2FFC02120465D
:102E900017F070FA204610BD10B50446FFF78CFD00
:102EA0004FF480720F4B201D04F19801A4F8BC2050
:102EB0000D4A23600023C4F898200C4AC4F89C30C3
:102EC0001288A4F8A0200A4A1288C4E92933C4E968
:102ED0002B33C4E92D33A4F8A22006F0ADFF204621
:102EE00010BD00BFDCC3010810C40108CC6B002476
:102EF000CE6B0024FFF757BD7047002210B5B1F923
:102F00000840B1F90A10028042808480C18010BD5F
:102F1000704710B50446282117F02CFA204610BD42
:102F2000002202607047704740F201134FF4F072C4
:102F300000200B8005238B704FF48873C1E90123B7
:102F4000704790F82430012B04BF002380F8243010
:102F5000002070470020704710B404690089A4461F
:102F60005DF8044B604710B4C4680089A4465DF85E
:102F7000044B604770B500F118050E4609782846E5
:102F800000F0F4F804463179284600F0FBF80444D8
:102F9000317A284600F002F90444317B284600F0DB
:102FA00009F90444317C284600F010F90444317DCD
:102FB000284600F017F9C44214BF4FF0FF3000203C
:102FC00070BD183000F026B937B500F118050C4671
:102FD00001A9284600F0BDF808BB9DF80430052B78
:102FE00098BF184604232060032128460DEB0302F6
:102FF00000F09CF8B0B99DF804309DF805201B0244
:1030000003F4706313439DF8072063609DF8063056
:103010001B0203F470631343A36003B030BD4FF091
:10302000FF30DFE74FF0FF30F7E7183000F08CB8E3
:103030000121183000F0E2B80021183000F0DEB8AD
:1030400010B590F8243004466BB9036898472046C1
:10305000FFF7F2FF00384FF0010318BF012084F89A
:103060002430404210BD0020FCE70020704770B5BE
:1030700000F1180588B00C462846694600F069F84A
:1030800090BB9DF80030052B98BF184620601E238A
:103090006A460321284600F049F840BB21466D46A8
:1030A00014342A78063515F8056C1302920903F4D6
:1030B0007063334315F8036C41F8043F8C4215F8F4
:1030C000043CCA634FEA032303F4706343EA060334
:1030D0004B6115F8023C8B6215F8013C4FEA131363
:1030E0000B65DED108B070BD4FF0FF30CEE74FF07A
:1030F000FF30F7E790B14A680B6842600A890360C5
:103100000281CA68C2600A6902614A69006242615A
:10311000044AC261044A826103B118474FF0FF308C
:10312000704700BF592F0008672F000810B4D0E97E
:103130000140A4465DF8044B604710B40468806801
:10314000A4465DF8044B604701230A461946FFF781
:10315000EDBF10B50A460C4601230221FFF7E6FF3A
:1031600018B9237803F00F03237010BD07B50123AE
:103170008DF807100DF107029121FFF7DEFF03B074
:103180005DF804FB07B501238DF807100DF1070268
:103190009221FFF7D2FF03B05DF804FB07B50123CE
:1031A0008DF807100DF107029321FFF7C6FF03B05A
:1031B0005DF804FB07B501238DF807100DF1070238
:1031C0009421FFF7BAFF03B05DF804FB07B50123B4
:1031D0008DF807100DF107029521FFF7AEFF03B040
:1031E0005DF804FB07B501238DF807100DF1070208
:1031F0009621FFF7A2FF03B05DF804FB07B501239A
:103200008DF807100DF10702A421FFF796FF03B018
:103210005DF804FB0A460123A821FFF787BF4FF0A2
:1032200080624FF480334FF48071C0E900234FF483
:1032300080524FF48063C0E902324FF48043C0E90A
:10324000043283614FF48023C0E9071300207047E4
:1032500070B59AB00E4605460021144606A85022C5
:1032600017F0A9FA1422002101A817F0A4FA2EB928
:10327000012C50D14FF0FF301AB070BD0423621EF4
:103280000993102053425341002E4FEAC3020B9280
:1032900014BF012200224FEA02114FEA82220A9152
:1032A00040F2FA510D924FEAC32208BF05210F9256
:1032B0004FF44052089106A90E920CBF4FF0807255
:1032C0004FF0806214924FEAC3624FEA4373169242
:1032D0000CBF002205221893012C4FF00103179216
:1032E00002930CBF022201224FF48003159241F297
:1032F0008832CDE90430284602F077FB0028B9D1A6
:1033000041F2883201A9284602F0ACFC003818BF0F
:1033100001204042B0E70123B1E770B596B00C46FA
:10332000064615460021502202A817F044FA002351
:10333000012CCDE9003304D11DB94FF0FF3016B098
:1033400070BD0123002C029318BF0423059314BF02
:10335000012300234FEA0313069340D1002D0CBF35
:103360000B230C23002C049341F2883202A90CBFDA
:103370004FF480734FF48063002D304609930CBFE7
:103380004FF400534FF44053002C0A930CBF4FF0FE
:1033900080734FF0806310930CBF082306231393B0
:1033A00002F023FB0028C8D102230293D4B9002DD8
:1033B00018BF12230493002341F2883202A9304639
:1033C000139302F012FB0028B7D1009069463046F3
:1033D00002F098FC003818BF01204042AFE74EF6DB
:1033E0001343BFE741F2ED23E4E710B596B004467E
:1033F0004C22002103A817F0DEF900234FF0080C3F
:103400004FF4006141F288322046CDE900330123B8
:103410000293042305931023CDE9063C4EF6116375
:103420004FF0006C04934FF4806309934FF44053C2
:10343000CDE90A314FF0806302A910930623CDE94C
:1034400012C34FF00053149302F0CFFA18B14FF0AB
:10345000FF3016B010BD022341F2883202A9029358
:1034600041F2ED23CDE913002046049302F0BDFAAA
:103470000028ECD100906946204602F043FC003859
:1034800018BF01204042E4E72DE9F0419AB00F4611
:1034900005460021164606A8502217F08CF9142282
:1034A000002101A817F087F937B9012E63D14FF039
:1034B000FF301AB0BDE8F0810423711E099341F278
:1034C000883228464C424C41002F06A94FEAC403DB
:1034D00014BF4FF001084FF000080B934FEA081398
:1034E0000A9340F2F96308BF0623089302F07DFABD
:1034F0000028DCD1002F40F2FA530C9041F28832C0
:1035000008BF052306A9284608934FEA88230D9390
:103510004FEAC4230F934FF440530E930CBF4FF068
:1035200080734FF0806314934FEAC4634FEA44748E
:1035300016930CBF00230523012E189417930CBF7C
:1035400002230123159302F050FA0028AFD1022381
:103550001022039001A92846CDE901334FF48003DE
:10356000CDE9043241F2883202F07CFB003818BF0A
:10357000012040429DE701239FE7F0B595B00E463C
:10358000054614460021502268461F4617F013F9DD
:103590002EB9012C46D14FF0FF3015B0F0BD0423F9
:1035A0000393631E06975A425A41002E4FEAC20304
:1035B000059314BF012300234FEA0313049347F23A
:1035C0008D2308BF722302930CBF4FF480734FF416
:1035D000806307934FEAC2234FEAC26209934FF414
:1035E00040531092089314BF4FF080634FF08073E4
:1035F0000E9319D0012C14BF0123022341F288320B
:10360000694628460F9302F0F0F90028C3D141F231
:1036100088321AA9284602F093FA003818BF012010
:103620004042BAE70123BBE70123E7E72DE9F04178
:1036300094B00F460646154600215022684698462B
:1036400017F0B9F837B9012D4ED14FF0FF3014B053
:10365000BDE8F081042303936B1E41F28832694672
:103660005C423046CDF818805C41002F4FEAC4031D
:10367000059314BF012300234FEA0313049347F279
:103680008E1308BF712302930CBF4FF480734FF465
:10369000806307934FEAC42309934FF44053089380
:1036A0000CBF4FF080734FF080630E934FEAC463FA
:1036B0004FEA447410930CBF00230523012D12948C
:1036C00011930CBF022301230F9302F08EF90028FF
:1036D000BBD141F288321A99304602F071FA0038B3
:1036E00018BF01204042B2E70123B4E770B594B09F
:1036F0000D460646144600215022684617F05BF836
:103700000DBB012C21D00123621E03936946304674
:1037100054425441002D41F2883214BF012300234A
:103720004FEAC4044FEA03130594049346F29963E5
:1037300008BF6623029302F058F9003818BF012031
:10374000404214B070BD0423DEE74FF0FF30F8E7CD
:1037500070B594B00D4606461446002150226846C6
:1037600017F029F80DBB012C21D00123621E039311
:103770006946304654425441002D41F2883214BF0C
:10378000012300234FEAC4044FEA03130594049372
:1037900049F6661308BF9923029302F026F9003810
:1037A00018BF0120404214B070BD0423DEE74FF083
:1037B000FF30F8E7114A08B513680BB9002008BDBF
:1037C000013B1360002BF9D14FF480410C4801F00C
:1037D0005BF90B484FF4004101F056F9094A0A48D9
:1037E000D2F8F43023F08003C2F8F43001F078FB13
:1037F0000028E3D06FF00700E1E700BF5C1700246A
:1038000000140258004402586421002400230122BD
:1038100010B5416004460362C0E90232C0E90433D6
:10382000C0E9063301F00AFB014608B1012010BDD2
:10383000204601F02CFD01460028F7D1204601F07A
:103840004CFD003818BF0120F1E70000A04BA14853
:103850002DE9F04F036093B09F4B1A68009201323C
:103860001A60009B002B40F0C28001F00BFD002885
:1038700040F0BD80994D4FF4804201210426D5F8D7
:10388000E030974843F02003C5F8E030D5F8E03049
:1038900003F020030A930A9BD5F8E03043F020039D
:1038A000C5F8E030D5F8E030119603F020030B9313
:1038B0000B9B1223CDE90D230223CDE90F130DA994
:1038C00000F0FEFF4FF400430DA985480D931196BB
:1038D00000F0F6FFD5F8F43043F08003C5F8F4307B
:1038E000D5F8F43003F080030C930C9BD5F89C3092
:1038F00043F08003C5F89C30D5F89C3023F080035A
:10390000C5F89C3003F0B0F900286AD0754B4FF031
:10391000100A009A03EB5003DFF8D0B19146B3FBD5
:10392000F0F000EB4005704B86000146C5F1320512
:103930001B68C6F5C37625EAE57526EAE67688466D
:103940004FF0000CB8F5AF7FCDF804C00CF1010CBE
:103950005AD30027BE46BD4250D8BE424ED39245F0
:103960004CD0142404FB03FA0133019C0BEB0A092D
:103970007F2B4BF80A20C9E9014E3CD95A4A136003
:10398000594B40F6C412594900271B6802924FF068
:10399000FF3204934300C3F5806B03F13204A3F6B6
:1039A00034030BF1010B08940993049B9F4237D118
:1039B0007F2A16D814214D4B4A4399189B580C7CEA
:1039C00044EA03744B681B0503F470031C438B68C3
:1039D0001B0403F470231C43CB681B029BB22343DC
:1039E000009300993B48FFF711FF00286CD100209D
:1039F00013B0BDE8F08F92464FF001090EF1010EB1
:103A00000F44BEF1100FA6D1BCF1100F884499D11C
:103A100001320144102A92D1B9F1000FAED1AFE7C3
:103A20000B684FF0000C089C03FB00031C44ABEB3D
:103A3000030503946C00039D0194099C1C440794A6
:103A400040F21454CDF814C0A5F132060CF1010C6B
:103A5000A5422ED9B0EB960F2BD2079C4FF0000E4B
:103A6000DDF80C806619DDF8049006F2A11A40F228
:103A70001244CDF818E00EF1010EA24512D8B8F5A7
:103A8000167F0FD340450DD236EA260A28BFCA4614
:103A9000029CA24506D2059ACDF808A00A61069AB2
:103AA000CA603A46BEF5807F1E44A9EB03099844DC
:103AB000DBD1019CBCF5807F1D44A4EB0304019481
:103AC000BED10137143170E76FF0070090E700BFF7
:103AD000001C0058642100245C1700240044025894
:103AE0000014025800CA9A3B602100246017002489
:103AF0001FB54FF47A7400920A4601460848CDE992
:103B00000134012301F006FA40B1054801F0BDFB84
:103B100004280CBF6FF065006FF0030004B010BD07
:103B2000642100241FB54FF47A7400920A460146BE
:103B30000848CDE90134012301F0C6FA40B1054837
:103B400001F0A3FB04280CBF6FF065006FF00300C9
:103B500004B010BD6421002400F0D4BC30B5214C69
:103B600085B02148A2786178FFF78EFC18B16FF01C
:103B7000040005B030BD03231B4800934FF440738D
:103B8000A2786178FFF7F9FC0028F0D1A27861787B
:103B90001548FFF779FC03460028E8D101251248B3
:103BA0000095A2786178FFF7E8FC04460028DED192
:103BB000282000F0ADFC224629460B48FFF748FBC1
:103BC00003460028D3D103AA29460092024606489C
:103BD000FFF72CFD0028CAD19DF80C30AB42C8D0AD
:103BE000C5E700BFB8210024C021002430B5274D0F
:103BF00085B0274CAA7869782046FFF745FC18B1B4
:103C00006FF0040005B030BD0323AA786978204620
:103C100000934FF44073FFF7B0FC0028F0D1AA786E
:103C200020466978FFF730FC03460028E8D10222DD
:103C3000697820460092AA78FFF79FFC0028DFD120
:103C4000282000F065FC4FF080732046E3604FF0C1
:103C50008053E36201F042FEA8B9012220461146DA
:103C6000FFF7F6FA03460028CAD103AA20460092BD
:103C700001221146FFF7DAFC0028C1D19DF80C3073
:103C8000022BBFD0BCE76FF00300BBE7B8210024D4
:103C9000C02100240E4A0423C0E900230A6800233F
:103CA000026102228360C0E905234A6842628A6891
:103CB00003638262CA68012AC0E9073306BF4FF076
:103CC00080524FF080731A46C360C26201F006BE94
:103CD0000050005210B598B90B4CA37861785BB9CD
:103CE00001220A48FFF719FB10B16FF0040010BD64
:103CF000022300202370FAE70448FFF776FBF3E77E
:103D00006FF00100F3E700BFB8210024C0210024B8
:103D100010B550B9094C2378022B09D1084802F09C
:103D200020F840B90123237010BD6FF00100FBE7BC
:103D30006FF01A00F8E76FF00300F5E7B8210024F0
:103D4000C021002410B5002856D12D4C2378022B19
:103D50004BD000234FF480612A482380A37000F0E9
:103D600093FE0421284800F08FFE4021274800F0F0
:103D70008BFE4FF40061264800F086FE4FF4805120
:103D8000234800F081FE0421224800F07DFE4FF41C
:103D900000511F4800F078FE10211D4800F074FE0D
:103DA00020211B4800F070FE4FF40071174800F00E
:103DB0006BFE8021164800F067FE174B1748DA6F3C
:103DC00042F48042DA67DA6F22F48042DA67D3F88D
:103DD000D42022F48042C3F8D42001F0F3FD00285F
:103DE0000CBF00206FF0030010BDFFF791FF00280B
:103DF000AFD06FF00400F7E76FF00100F4E700BF09
:103E0000B821002400140258000402580018025877
:103E1000000C02580010025800440258C02100242F
:103E20002DE9FF410D461646002856D12E4C237829
:103E3000022B55D06378012B46D10129A27809D1F4
:103E4000964207D10123002065702370A67004B04C
:103E5000BDE8F081254F01213846FFF715FB0346E9
:103E600078BBADF80C0000903846A2786178FFF777
:103E700084FB804628BB282000F04AFBA378012B56
:103E800006D13846C7F80C80C7F82C8001F026FD13
:103E9000002216481146FFF7DBF9034688B903AA4A
:103EA0000146009202461148FFF7C0FB48B99DF851
:103EB0000C3033B9012DC5D1A3784BB9FFF796FE6D
:103EC00008E06FF00400C2E70129BBD1002AF5D158
:103ED000FFF744FE0028BAD1B4E76FF00100B6E75F
:103EE0006FF01900B3E700BFB8210024C0210024FF
:103EF00000B54FF00072AFB000236846CDE9002353
:103F00002023502213930523CDE902320493022388
:103F1000CDE905330023CDE90833079302F0D0FF44
:103F20002FB05DF804FB00002DE9F0430D469BB077
:103F3000002840F06081B14E3478002C40F0598167
:103F4000AF4B4FF002094FF00A0811A9D3F8D42063
:103F50000427AC4842F48042C3F8D420D3F8D420DC
:103F600002F480420192019ADA6F42F48042DA67E9
:103F7000DA6F22F48042DA67D3F8E02042F02002C0
:103F8000C3F8E020D3F8E02002F020020292029A67
:103F9000D3F8E02042F00202C3F8E020D3F8E0209A
:103FA00002F002020392039AD3F8E02042F04002AA
:103FB000C3F8E020D3F8E02002F040020492049A13
:103FC000D3F8E02042F00802C3F8E020D3F8E02064
:103FD00002F008020592059AD3F8E02042F00802A8
:103FE000C3F8E020D3F8E02002F008020692069A17
:103FF000D3F8E02042F01002C3F8E020D3F8E0202C
:1040000002F010020792079AD3F8E02042F008026B
:10401000C3F8E020D3F8E02002F008020892089AE2
:10402000D3F8E02042F00802C3F8E020D3F8E02003
:1040300002F008020992099AD3F8E02042F008023F
:10404000C3F8E020D3F8E02002F008020A920A9AAE
:10405000D3F8E02042F04002C3F8E020D3F8E0209B
:1040600002F040020B920B9AD3F8E02042F00802D3
:10407000C3F8E0200122D3F8E03003F008030C93EA
:104080000C9B4023CDE911390323CDF85480CDE9B1
:10409000132300F015FC11A95B4811971394CDF878
:1040A000548000F00DFC4FF480631394092411A98F
:1040B00056481193159400F003FC4FF4006311A9C6
:1040C00053481193159400F0FBFB4FF4805311A952
:1040D0004F481193159400F0F3FB11A94D48119727
:1040E0002027159400F0ECFB4FF4005311A9484829
:1040F0001193159400F0E4FB102311A94448119387
:10410000CDF8548000F0DCFB11A941481197CDF89F
:10411000548000F0D5FB4FF4007311A93948119376
:10412000159400F0CDFB802311A939481193CDF8E7
:10413000548000F0C5FB11A8FFF771F8119BCDF872
:10414000389093FAA3F30BB1B3FA83F70023324804
:104150000D970F936B781093FFF7CAFE20B16FF0A5
:1041600003001BB0BDE8F0830DA92B48FFF792FDBB
:1041700002460028F3D101462748FFF7B7FA024666
:1041800010B16FF00400ECE701462348FFF7E0FAB6
:1041900002460028F5D101211F48FFF7A7FA024681
:1041A0000028EED101211C48FFF7D2FA0028E8D1FF
:1041B000012219481146FFF799FA0028E1D101229E
:1041C00015481146FFF7C4FA0028DAD10123B07070
:1041D0006420338000F09CF9B27871780E48FFF7C4
:1041E00037F80028CDD16A782978FFF719FE002822
:1041F000C7D10020B5E76FF00100B2E7B821002475
:1042000000440258001802580004025800140258D2
:10421000000C025800100258C02100242DE9F04182
:104220000C4688B0002863D10B685A1EB2F5F07FA7
:104230005ED24A68511EB1F5887F59D2934228BF99
:104240001346E2689A4253D870232B4D019002A97D
:10425000ADF810302846294B0293294B0393294B84
:104260000693294B0593294B0793FEF743FF28B18B
:104270004FF0FF35284608B0BDE8F08101A9284677
:10428000FEF79FFE0028F3D1019B512BF0D1204B6C
:104290002846204FDFF884803D60C8F800301B6856
:1042A000984705460028E3D1236802A91A4E3868CA
:1042B000336063687360A368B360E368F360D8F841
:1042C0000030DB69984700280FDB039B22683361CD
:1042D000049B61687361E3681A440B440132013343
:1042E000B2617362C6E90723C4E76FF00405C1E752
:1042F0006FF00105BEE700BF1C2200244D38000806
:10430000B5370008253B0008F13A0008593B000882
:104310000C0000244422002448220024702200249F
:104320002DE9FF410C46002853D12B4B01A92B4A04
:104330001B6810681B699847002847DB28490198CB
:104340008E690D6A00283DD0D1F808E0D1F81080C0
:104350001EF0080FDDE902C719BF3B4662463A4628
:1043600063461EF0020F1CBF08F1FF33A3EB0C03E2
:10437000D1F814C01EF0040F18BFACEB07020F6891
:104380007B434F6820607A43CF68B3FBF8F3B2FBFE
:10439000FCF2B3426360A2608CBFA3EB060CA6EBF9
:1043A000030CAA428CBF501BA81A674501D3874251
:1043B00005D28B610A62002004B0BDE8F081C4E937
:1043C0000165F8E7C4E90006A560F5E76FF00400B1
:1043D000F2E76FF00100EFE770220024442200248E
:1043E00048220024224AD2F8883043F47003C2F8ED
:1043F0008830204A136803F00F03062B05D8136892
:1044000023F00F0343F0070313601B4B1A6842F0BD
:1044100001021A6000221A61184A19680A401549F7
:104420001A600A68120705D50A6822F00F0242F0E6
:1044300007020A60002212499A61DA611A629962DF
:104440001049D962104919635A639963DA63196490
:104450005A64196821F4802119601A6643F2D20265
:104460000A4B1A604FF00062014B9A60704700BF20
:1044700000ED00E000200052004402587FEDF6EA13
:10448000000202020000FF01800201010040005210
:1044900010B5032000F04EF802F0EAF90F49104A77
:1044A0008B69C3F30323D35C03F01F03D8408B69EC
:1044B00003F00F03D35C0B4A03F01F0320FA03F34E
:1044C0001360094B18600020FCF772FD044618B910
:1044D000FCF77AFA204610BD0124FBE7004402589D
:1044E00070C40108400000243C000024034A044B2F
:1044F00011681B780B441360704700BF74220024BE
:1045000044000024014B1868704700BF7422002447
:1045100038B50446FFF7F6FF0546631C1EBF044B83
:104520001B78E418FFF7EEFF431BA342FAD338BD14
:104530004400002407490302CA6803F4E06322F43C
:10454000E0621204120C134343F0BF6343F40033E0
:10455000CB60704700ED00E0164B30B5DC68C4F36B
:104560000224C4F10703251D042B28BF0423062DB4
:104570004FF0FF358CBF033C002405FA03F30028FD
:1045800005FA04F521EA030322EA050203FA04F31B
:1045900043EA02034FEA0313DBB206DB00F160409B
:1045A00000F5614080F8003330BD00F00F00024A92
:1045B0001354F9E700ED00E014ED00E0002807DBFC
:1045C0000123410900F01F00024A834042F82130D4
:1045D000704700BF00E100E0BFF35F8F044B5A6AF1
:1045E00022F480325A620022C3F89420704700BF40
:1045F00000ED00E0064B40F00100C3F894005A6A59
:1046000042F480325A62BFF34F8FBFF36F8F70470F
:1046100000ED00E04378144A10B5C2F898300178F4
:10462000E9B14368C2F89C30C37A047B1B0643EAB5
:1046300004730B43817A43EAC143417B43EA8143DC
:10464000817B43EA4143C17B43EA0143417A43EA28
:104650000123017A43EA4103C2F8A03010BDC2F839
:104660009C10C2F8A010F9E700ED00E010B5044678
:1046700008B9012010BD437F03F0FF0213B9027790
:10468000FCF7BAF9022363772379E3B92368134A65
:104690005A619A6822F018029A6062792368D2B946
:1046A0004FF0FF321A6100209A68616922F06002BF
:1046B0000A43A1699A609A6822F080020A439A60CC
:1046C00001236377D6E7D4E90212204600F008F808
:1046D0000028E2D0CDE72269E4E700BFB71DC1049E
:1046E000CB0710B50CD51F23013B1CD321FA03F4D3
:1046F000E407F9D5102A12D004D83AB1082A10D00C
:1047000001200BE0182AFBD1062BF9D80068416183
:10471000836823F0180313438360002010BD072B28
:10472000F3E70F2BF1E7002AEAD1EFE710B50446D3
:10473000002836D090F8613003F0FF021BB980F8F2
:104740006020FCF771F90223E069626884F8613047
:1047500023680243A069196821F4E02121F0400197
:104760000A431A60596BA26821F48371024321F055
:1047700001010A43E1685A631A6C120C12040A43DD
:104780001A64596BD4E9040221F44011520542EA3B
:10479000005200200A435A630123606684F86130A6
:1047A00010BD0120FCE770477047036870B55E6874
:1047B00004461D68F20714D5E90512D51A6822F4DB
:1047C00080721A60426E42F00102426601229A60D3
:1047D000042380F86130002380F86030436A03B11D
:1047E0009847B20616D5AB0414D523681A6822F48C
:1047F00000521A6020229A60636E43F002036366DF
:10480000042384F86130002384F86030636A0BB1BC
:1048100020469847300716D5290514D523681A680D
:1048200022F400621A6008229A60636E43F0040367
:104830006366042384F86130002384F86030636A7F
:104840000BB12046984772070BD56B0509D5236835
:1048500020461A6822F480621A6004229A60FFF7E8
:10486000A2FFB00714D5A90512D523681A6822F44F
:1048700000721A6002229A60636E6366012384F8F4
:104880006130002384F86030236A0BB120469847DA
:10489000F20613D5EB0411D5236820461A6822F4DA
:1048A00080521A6010229A60636E6366012384F856
:1048B0006130002384F86030FFF776FF70BD0000A0
:1048C0002DE9F74F0023DFF8BC914FF0B0440A68A0
:1048D00032FA03F502D103B0BDE8F08F4FF0010EBC
:1048E0000EFA03FE1EEA020200F0B8804E684FEA9C
:1048F00043084FF0030C06F003050CFA08FC6F1E8A
:104900006FEA0C0C012F34D8876807EA0C0ACF68CD
:1049100007FA08F747EA0A078760476827EA0E0E92
:10492000C6F300179F4047EA0E074760C768022D8D
:1049300007EA0C0E8F6807FA08F747EA0E07C76008
:1049400019D14FEAD30A03F0070B4FF00F0E00EB1B
:104950008A0A4FEA8B0BDAF820700EFA0BFE27EA70
:104960000E0E0F6907FA0BF747EA0E07CAF8207018
:1049700001E0032DDAD1076805FA08F516F4403F87
:1049800007EA0C0745EA0705056067D0D9F8F45037
:1049900023F0030703F0030C45F0020507F1B047CD
:1049A0004FEA8C0CC9F8F45007F58067D9F8F45039
:1049B00005F002050195019D0F25D7F808E005FADD
:1049C0000CF52EEA050E2E4DA84249D005F580655E
:1049D000A84247D005F58065A84245D005F5806519
:1049E000A84243D005F58065A84241D005F5806511
:1049F000A8423FD005F58065A8423DD005F5806509
:104A0000A8423BD005F50065A8420CBF09250A2540
:104A100005FA0CF516F4801F45EA0E05BD606FEA35
:104A2000020725680CBF3D40154316F4001F2560A2
:104A300065680CBF3D40154316F4003F6560D4F82F
:104A400084500CBF3D401543F603C4F88450D4F89D
:104A5000805054BF3D401543C4F88050013336E7C1
:104A60000025D5E70125D3E70225D1E70325CFE7C8
:104A70000425CDE70525CBE70625C9E70725C7E7C8
:104A800000000258004402582DE9F04F0022DFF8E0
:104A90001C81DFF81C91DFF81CA1DFF81CB131FA92
:104AA00002F301D1BDE8F08F012303FA02FC1CEAF6
:104AB000010667D022F0030402F003070F253A4BEA
:104AC00004F1B044BF00984205FA07F5D4F808E4B1
:104AD00004F5806405EA0E0E56D003F58063984213
:104AE00054D003F58063984252D003F58063984216
:104AF00050D003F5806398424ED040454ED0484593
:104B00004ED050454ED058450CBF09230A23BB4018
:104B1000734519D14FF0B043D3F8807027EA0607E8
:104B2000C3F88070D3F8847027EA0607C3F884704E
:104B30005F6827EA06075F601F6827EA06071F60AD
:104B4000A36823EA0503A36055000323046802F069
:104B50000707AB400F26BF001C43BE400460D408CB
:104B600000EB8404256A25EA06052562C46824EA68
:104B70000304C460446824EA0C044460846824EAA2
:104B80000303836001328AE70023C0E70123BEE705
:104B90000223BCE70323BAE70423B8E70523B6E7FB
:104BA0000623B4E70723B2E70000025800140258B6
:104BB00000180258001C02580024025803691942C8
:104BC00014BF0120002070470AB1816170470904B9
:104BD000FBE7436901EA030221EA030141EA0241DA
:104BE0008161704703689A69910701D500229A6232
:104BF0009A69D20703D49A6942F001029A61704718
:104C000030B5039DC1F3090104682B43606843EA92
:104C10000243054A0B4342EA555223F0004320EA7F
:104C200002000343636030BDFF63FF0303682DE9A7
:104C3000F0419C6905460F46164614F010046FD0EB
:104C400000241022A046DA612B689A69900661D48C
:104C5000B8F1000F35D044F0040401202E68B36988
:104C6000D90505D54FF4807244F001040120F261AA
:104C70005A0505D54FF4806244F008040120F26122
:104C80009B054FD54FF4007344F00204F3612846AE
:104C9000FFF7A8FF7368012023F0FF7323F48B3321
:104CA00023F4FF7323F0010373606B6C23436B6485
:104CB000202385F84130002385F8423085F84030C4
:104CC00032E07A1CC1D0FFF71DFC801BB84201D82E
:104CD000002FB9D12B68596895F842209869D2B253
:104CE00000040AD5490408D4202A06D05A6842F4A0
:104CF00080425A60FFF706FC06462B689B699B06BC
:104D0000A2D4FFF7FFFB801B1928F6D920244FF00F
:104D1000010899E7B8F1000F9DD12022DA619AE7E6
:104D200020469BE70028B2D1BDE8F08170B504466B
:104D30000D46164623689B699B0701D5002070BD70
:104D4000324629462046FFF771FFC0B96A1CF1D0F0
:104D5000FFF7D8FB801BA84201D8002DEAD12368B9
:104D60009B6913F00203E5D1626C84F8403042F095
:104D700020026264202284F8412084F8423001201D
:104D8000DDE72DE9F041069F0446884616461D469C
:104D90002268936938EA03030CBF01230023B3425E
:104DA00001D000201EE06B1CF3D0FFF7ABFBC01B53
:104DB000A84201D8002DEBD123689B6938EA030390
:104DC0000CBF01230023B342E2D1636C012043F006
:104DD00020036364202384F84130002384F84230A8
:104DE00084F84030BDE8F08170B504460D461646A3
:104DF00023689B699B0601D5002070BD3246294679
:104E00002046FFF713FFB0B9FFF77CFB801BA842D9
:104E100001D8002DECD123689B6913F02003E7D162
:104E2000626C84F8403042F020026264202284F8F0
:104E3000412084F842300120DFE7704710B5044676
:104E400000284AD090F8413003F0FF021BB980F8E7
:104E50004020FFF7F2FF242384F8413023681A68CA
:104E600022F001021A60626822F070621A619A6888
:104E700022F400429A60D4E90221012924D142F4AB
:104E800000429A605A68002042F0007242F40042E8
:104E90005A60DA6822F40042DA60D4E904210A4355
:104EA000A16942EA0122DA60D4E907210A431A60C3
:104EB0001A6842F001021A602023606484F84130CD
:104EC000206384F8420010BD42F4044202299A6033
:104ED000D8D14FF400625A60D4E70120F3E770475D
:104EE00010B5044698B10268242380F84130136855
:104EF00023F001031360FFF7F2FF0020606484F8E1
:104F0000400084F84100206384F8420010BD012075
:104F1000FCE700002DE9F74F994690F84130044630
:104F20000F46202B1646BDF834A0DDF8388040F03F
:104F3000C6800C9B13B1BAF1000F06D14FF4007379
:104F40006364012003B0BDE8F08F90F84030012B7E
:104F500000F0B5804FF0010B80F840B0FFF7D2FAB7
:104F60001923054600905A464FF400412046FFF7AA
:104F700008FF0028E5D121235FFA89F239466063F2
:104F800084F84130402384F842300C9B6064204612
:104F900063624C4BA4F82AA000934FF08073FFF794
:104FA0002FFE2A4641462046FFF7C0FE18BBB9F146
:104FB000010F236815D1F6B20022802120469E629F
:104FC00043460095FFF7DDFEA8B9638D9BB2FF2B2A
:104FD00015D8628D4FF00073009092B22285D2B244
:104FE00012E0320A414620469A622A46FFF79EFEA8
:104FF00008B92368DFE7002384F84030A1E7FF22E7
:105000004FF080730090228539462046FFF7F8FD67
:105010002A4641462046FFF789FE002891D1636A5F
:10502000226813F8011B91626362638D228D013B3C
:10503000013A9BB292B26385638D22859BB2B3B174
:10504000AAB94346802120460095FFF79AFE002822
:105050007FF477AF638D9BB2FF2B28D9FF224FF0EF
:1050600080730090228539462046FFF7C9FD638D85
:105070009BB2002BCCD12A4641462046FFF7B4FE16
:1050800000287FF45EAF23682021D9615A6822F09E
:10509000FF7222F48B3222F4FF7222F001025A6076
:1050A00084F8411084F8400084F842004AE7628D99
:1050B0004FF00073009092B22285D2B2D3E7022063
:1050C00040E700BF002000802DE9F74F994690F897
:1050D000413004460F46202B1646BDF834A0DDF8BB
:1050E000388040F0C9800C9B13B1BAF1000F06D193
:1050F0004FF400736364012003B0BDE8F08F90F8B3
:105100004030012B00F0B8804FF0010B80F840B028
:10511000FFF7F8F91923009005465A464FF400416D
:105120002046FFF72EFE03460028E4D1222239460E
:10513000606384F84120402284F842200C9A606425
:10514000204662624D4AA4F82AA000925FFA89F2D2
:10515000FFF756FD2A4641462046FFF7E7FD20BBF4
:10516000B9F1010F236816D1F6B200224021204682
:105170009E6243460095FFF704FEB0B9638D9BB273
:10518000FF2B3F4B15D8628D00934FF0007392B206
:105190002285D2B212E0320A414620469A622A465D
:1051A000FFF7C4FD08B92368DEE7002384F8403028
:1051B000A1E7FF2200934FF08073228539462046F5
:1051C000FFF71EFD43460022042120460095FFF70D
:1051D000D8FD00288FD123685A6A636A1A70636AFF
:1051E000228D0133013A6362638D92B2013B2285C5
:1051F0009BB26385638D9BB2B3B1AAB9434680214C
:1052000020460095FFF7BDFD00287FF474AF638D45
:105210009BB2FF2B28D9FF224FF08073009022858C
:1052200039462046FFF7ECFC638D9BB2002BC9D1B9
:105230002A4641462046FFF7D7FD00287FF45BAFA2
:1052400023682021D9615A6822F0FF7222F48B3240
:1052500022F4FF7222F001025A6084F8411084F8AF
:10526000400084F8420047E7628D4FF000730090E1
:1052700092B22285D2B2D3E702203DE7002000801F
:105280000024008090F841007047406C704710B5D2
:1052900090F84130202BDCB21DD190F84030012B2A
:1052A00019D0242380F8413003681A6822F00102E3
:1052B0001A601A6822F480521A601A681143196041
:1052C0001A6842F001021A60002380F8414080F819
:1052D0004030184610BD0220FCE710B590F8413070
:1052E000202BDCB21CD190F84030012B18D02423A5
:1052F00080F8413003681A6822F001021A601A68C7
:1053000022F4706242EA012119601A6842F0010237
:105310001A60002380F8414080F84030184610BDE4
:105320000220FCE7D2010068D1F800C08432831863
:105330002DE9F043C6680CF101075D684FF0000EDF
:105340004C68C6F30B4605F47045D1F81890264416
:105350005D60C568C5F30B453D4445EA06455D60A3
:10536000C668CD68C6F30A062E449D6805F47045EC
:105370009D608D68C7680135C7F30A073D4445EA5B
:1053800006450E699D601D6925F007051D611E61BA
:105390009D6991F8327091F83180C3F818E091F866
:1053A000305045EA096545EA082545EA07459D610B
:1053B0005D6925F0FF055D614D695D61DD6925F47D
:1053C000E06525F00705DD61D1E907573D43DD6163
:1053D0009D6A4D6AC3F828E09D62FEB1013E062E2B
:1053E0001ED8104DAD5DDE6AA4EB0C0406F0E0267D
:1053F0006C43DE6207348E6AC96A6E4344EA06442F
:10540000DC621C6B24F4FF6424F007041C63196342
:10541000835843F001038350BDE8F0830425E2E79D
:105420000125E0E780C4010838B50446002863D0B0
:1054300090F8A13003F0FF021BB980F8A020FBF721
:1054400017FB022384F8A13023689A6922F0704286
:105450009A619969D4E901200243E0680243206916
:10546000024360690A4325499A619A680A409A6032
:105470009A6842EA0042A0690243E0699A60DA68E9
:105480000A40DA60DA6842EA0042206A0243606A4F
:10549000DA601A690A401A611A6942EA0042A06A8F
:1054A00002431A615A690A40E16A5A615A6942EA3A
:1054B0000142216B0A435A61DA6A94F8350002F01E
:1054C0007F4294F83610DA62DD6A94F834202A4379
:1054D00042EA0022002042EA0142DA625A6B42F0BC
:1054E00006025A639A6942F001029A610123C4F8E4
:1054F000A40084F8A13038BD0120FCE700F800F0DA
:1055000070477047036870B59E6B04465D6B720709
:1055100014D5690712D55A6B22F004025A6304228B
:10552000DA63D0F8A43043F00103C0F8A4300023BC
:1055300080F8A12080F8A030FFF7E2FFB20716D56F
:10554000AB0714D5236820465A6B22F002025A6337
:105550000222DA63D4F8A4301343C4F8A43004233D
:1055600084F8A130002384F8A030FFF7C9FFF007CA
:1055700010D5E9070ED5236820465A6B22F00102A8
:105580005A630122DA63002384F8A12084F8A03052
:10559000FCF792FC320711D52B070FD52368204664
:1055A0005A6B22F008025A630822DA63012384F856
:1055B000A130002384F8A030FFF7A3FF70BD2DE9D0
:1055C000F04190F8A03006460F469446012B4FF06C
:1055D00002001FD034244FF001080D4686F8A100C8
:1055E00004FB026486F8A08038340FCD0FC40FCDC1
:1055F0000FC40FCD0FC42B68304662463946236076
:10560000FFF790FE33680020C3F8248086F8A1805D
:1056100086F8A000BDE8F08190F8A030012B4FF093
:10562000020312D080F8A13003685A6B22F0010205
:105630005A63074A11645A6B42F001025A6301230C
:1056400080F8A130002380F8A0301846704700BFD2
:105650000010005038B50446FEF754FF054644B12B
:1056600094F83D30022B06D08023A366002384F8F3
:105670003C30012015E02368DA6822F03E02DA604F
:10568000DA6822F00102DA602268D36813F00103BD
:1056900008D11F2118465160012284F83C3084F85B
:1056A0003D2038BDFEF72EFF401B0528ECD9A36E28
:1056B00043F04003A366002384F83C30032384F8BE
:1056C0003D30D6E72DE9F0430468236823F04053CA
:1056D000236083682BB923684A6823F0800313434F
:1056E00023600B68022B50D104F5C07204F5C47618
:1056F00004F5C87504F5D07CD1E912373B4313603B
:10570000CB6A6BB18B6ACCF800304F6BCB6AD2F8A6
:1057100000C03B430F6B3B432CF47C173B431360AF
:1057200033684F6C23F01F033B433360D1F838E0FC
:10573000BEF1000F04D00B6813B9CB6B013B23649F
:10574000CB68D1F81C90002B7AD0D1E904C8B9F10C
:10575000000F4AD0D1E90867BEF1000F29D04EEA08
:105760000303106843EA090343EA080343EA0C030E
:105770003B4333430E6C3343434E06403343136085
:105780008B682B608B69A36443E0032B01BF04F596
:10579000A07204F5A47604F5A87504F5B07C1FBFCB
:1057A00004F5807204F5847604F5887504F5907C20
:1057B000A2E743EA0903D2F800E043EA08032EF423
:1057C0007C5E43EA0C032EF03F0E3B43334343EA37
:1057D0000E031360C36AB3F1805FD1D14B69082B0C
:1057E000CED1136843F00063C9E7BEF1000F13D0B8
:1057F0004EEA030310680C6C43EA080320F0706063
:1058000043EA0C0320F03F002343034313608B68FB
:105810002B600020BDE8F083146843EA080324F0FD
:105820003F0443EA0C0323431360C36AB3F1805F70
:10583000EDD14B69082BEAD1136843F00063E5E72B
:10584000B9F1000F1BD0D1E90860BEF1000F0DD0F7
:105850004EEA090315680343086C3343034325F0FC
:10586000706020F47C50034313608BE7136840EAB8
:10587000090023F47C5330431843106082E7082367
:1058800043650120C6E700BFC0C0FFF02DE9F0412D
:10589000DDF8188004460E4615461F462268136A36
:1058A000334214BF01230023AB4201D1002012E098
:1058B000B8F1FF3FF3D0FEF725FEC01B404502D8EC
:1058C000B8F1000FEAD14FF4007301202365636D36
:1058D00043F001036365BDE8F0810000F0B50446C4
:1058E00085B0FEF70FFE0346002C67D000206065F0
:1058F000266D002E60D120460393FBF7C9F9606B3B
:10590000E16841F2883225680143E069AF680143EC
:105910002B48A2653840039B01432069013841EAC6
:1059200000416069013841EA0021206AA960E96804
:1059300021F4E0210143206BE960A16B41EA0041C1
:10594000606829610138E16B6961296821F4F851C7
:1059500041EA002120462960202100923246FFF7CB
:1059600095FF48BB2368626AD968013A21F0FF01BC
:105970000A43A168DA601A6822F040020A431A60FA
:10598000D3F80811D4E90A2521F0A0412A430A439B
:10599000C3F808211A6842F001021A60A269022ABB
:1059A00003D19A6842F002029A60E368B3F1806F13
:1059B0000CBF01230223236505B0F0BD0120FBE7E6
:1059C000F4F8E0F810B5044668B103681A6822F0EC
:1059D00001021A609A6822F002029A60FBF786FAC6
:1059E0000020206510BD0120FCE77FB50446164667
:1059F0000D46FEF787FD226D0346022A07D1E268B5
:105A0000B2F1806F09D11023012063651FE0142AD1
:105A10001FD12A68023A012AF5D800222021204607
:105A200000960393FFF732FF88B960652946204648
:105A3000FFF748FE58B9AA6B039B92B901220221D5
:105A400020460096FFF722FF236802225A6204B024
:105A500070BD242AD7D12A6822F00202012AD2D1AD
:105A6000DBE72B680BB9042305E0012B05D1236D7F
:105A7000242BF8D014232365E9E7022BE7D1236D0B
:105A8000142BF0D02423F6E773B5044616460D46D2
:105A9000FEF738FD226D0346013A012A16D800228E
:105AA000202120460096FFF7F1FE68B92268D5E96B
:105AB00002310B43296843EA0143696843EA012341
:105AC000C2F800320223236502B070BD102301200A
:105AD0006365F9E773B5044616460D46FEF712FDF9
